{
  "contractName": "NFTMinter",
  "abi": [
    {
      "inputs": [],
      "stateMutability": "nonpayable",
      "type": "constructor"
    },
    {
      "anonymous": false,
      "inputs": [
        {
          "indexed": true,
          "internalType": "address",
          "name": "owner",
          "type": "address"
        },
        {
          "indexed": true,
          "internalType": "address",
          "name": "approved",
          "type": "address"
        },
        {
          "indexed": true,
          "internalType": "uint256",
          "name": "tokenId",
          "type": "uint256"
        }
      ],
      "name": "Approval",
      "type": "event"
    },
    {
      "anonymous": false,
      "inputs": [
        {
          "indexed": true,
          "internalType": "address",
          "name": "owner",
          "type": "address"
        },
        {
          "indexed": true,
          "internalType": "address",
          "name": "operator",
          "type": "address"
        },
        {
          "indexed": false,
          "internalType": "bool",
          "name": "approved",
          "type": "bool"
        }
      ],
      "name": "ApprovalForAll",
      "type": "event"
    },
    {
      "anonymous": false,
      "inputs": [
        {
          "indexed": true,
          "internalType": "address",
          "name": "from",
          "type": "address"
        },
        {
          "indexed": true,
          "internalType": "address",
          "name": "to",
          "type": "address"
        },
        {
          "indexed": true,
          "internalType": "uint256",
          "name": "tokenId",
          "type": "uint256"
        }
      ],
      "name": "Transfer",
      "type": "event"
    },
    {
      "inputs": [
        {
          "internalType": "address",
          "name": "to",
          "type": "address"
        },
        {
          "internalType": "uint256",
          "name": "tokenId",
          "type": "uint256"
        }
      ],
      "name": "approve",
      "outputs": [],
      "stateMutability": "nonpayable",
      "type": "function"
    },
    {
      "inputs": [
        {
          "internalType": "address",
          "name": "owner",
          "type": "address"
        }
      ],
      "name": "balanceOf",
      "outputs": [
        {
          "internalType": "uint256",
          "name": "",
          "type": "uint256"
        }
      ],
      "stateMutability": "view",
      "type": "function",
      "constant": true
    },
    {
      "inputs": [
        {
          "internalType": "uint256",
          "name": "tokenId",
          "type": "uint256"
        }
      ],
      "name": "getApproved",
      "outputs": [
        {
          "internalType": "address",
          "name": "",
          "type": "address"
        }
      ],
      "stateMutability": "view",
      "type": "function",
      "constant": true
    },
    {
      "inputs": [
        {
          "internalType": "address",
          "name": "owner",
          "type": "address"
        },
        {
          "internalType": "address",
          "name": "operator",
          "type": "address"
        }
      ],
      "name": "isApprovedForAll",
      "outputs": [
        {
          "internalType": "bool",
          "name": "",
          "type": "bool"
        }
      ],
      "stateMutability": "view",
      "type": "function",
      "constant": true
    },
    {
      "inputs": [
        {
          "internalType": "uint256",
          "name": "",
          "type": "uint256"
        }
      ],
      "name": "meta",
      "outputs": [
        {
          "internalType": "string",
          "name": "",
          "type": "string"
        }
      ],
      "stateMutability": "view",
      "type": "function",
      "constant": true
    },
    {
      "inputs": [],
      "name": "name",
      "outputs": [
        {
          "internalType": "string",
          "name": "",
          "type": "string"
        }
      ],
      "stateMutability": "view",
      "type": "function",
      "constant": true
    },
    {
      "inputs": [
        {
          "internalType": "uint256",
          "name": "tokenId",
          "type": "uint256"
        }
      ],
      "name": "ownerOf",
      "outputs": [
        {
          "internalType": "address",
          "name": "",
          "type": "address"
        }
      ],
      "stateMutability": "view",
      "type": "function",
      "constant": true
    },
    {
      "inputs": [
        {
          "internalType": "address",
          "name": "from",
          "type": "address"
        },
        {
          "internalType": "address",
          "name": "to",
          "type": "address"
        },
        {
          "internalType": "uint256",
          "name": "tokenId",
          "type": "uint256"
        }
      ],
      "name": "safeTransferFrom",
      "outputs": [],
      "stateMutability": "nonpayable",
      "type": "function"
    },
    {
      "inputs": [
        {
          "internalType": "address",
          "name": "from",
          "type": "address"
        },
        {
          "internalType": "address",
          "name": "to",
          "type": "address"
        },
        {
          "internalType": "uint256",
          "name": "tokenId",
          "type": "uint256"
        },
        {
          "internalType": "bytes",
          "name": "_data",
          "type": "bytes"
        }
      ],
      "name": "safeTransferFrom",
      "outputs": [],
      "stateMutability": "nonpayable",
      "type": "function"
    },
    {
      "inputs": [
        {
          "internalType": "address",
          "name": "operator",
          "type": "address"
        },
        {
          "internalType": "bool",
          "name": "approved",
          "type": "bool"
        }
      ],
      "name": "setApprovalForAll",
      "outputs": [],
      "stateMutability": "nonpayable",
      "type": "function"
    },
    {
      "inputs": [
        {
          "internalType": "bytes4",
          "name": "interfaceId",
          "type": "bytes4"
        }
      ],
      "name": "supportsInterface",
      "outputs": [
        {
          "internalType": "bool",
          "name": "",
          "type": "bool"
        }
      ],
      "stateMutability": "view",
      "type": "function",
      "constant": true
    },
    {
      "inputs": [],
      "name": "symbol",
      "outputs": [
        {
          "internalType": "string",
          "name": "",
          "type": "string"
        }
      ],
      "stateMutability": "view",
      "type": "function",
      "constant": true
    },
    {
      "inputs": [
        {
          "internalType": "uint256",
          "name": "tokenId",
          "type": "uint256"
        }
      ],
      "name": "tokenURI",
      "outputs": [
        {
          "internalType": "string",
          "name": "",
          "type": "string"
        }
      ],
      "stateMutability": "view",
      "type": "function",
      "constant": true
    },
    {
      "inputs": [
        {
          "internalType": "address",
          "name": "from",
          "type": "address"
        },
        {
          "internalType": "address",
          "name": "to",
          "type": "address"
        },
        {
          "internalType": "uint256",
          "name": "tokenId",
          "type": "uint256"
        }
      ],
      "name": "transferFrom",
      "outputs": [],
      "stateMutability": "nonpayable",
      "type": "function"
    },
    {
      "inputs": [
        {
          "internalType": "string",
          "name": "_newMeta",
          "type": "string"
        }
      ],
      "name": "mint",
      "outputs": [],
      "stateMutability": "nonpayable",
      "type": "function"
    }
  ],
  "bytecode": "0x60806040523480156200001157600080fd5b506040518060400160405280600681526020017f4d696e74657200000000000000000000000000000000000000000000000000008152506040518060400160405280600681526020017f4e65774e46540000000000000000000000000000000000000000000000000000815250816000908051906020019062000096929190620000b8565b508060019080519060200190620000af929190620000b8565b505050620001cd565b828054620000c69062000168565b90600052602060002090601f016020900481019282620000ea576000855562000136565b82601f106200010557805160ff191683800117855562000136565b8280016001018555821562000136579182015b828111156200013557825182559160200191906001019062000118565b5b50905062000145919062000149565b5090565b5b80821115620001645760008160009055506001016200014a565b5090565b600060028204905060018216806200018157607f821691505b602082108114156200019857620001976200019e565b5b50919050565b7f4e487b7100000000000000000000000000000000000000000000000000000000600052602260045260246000fd5b612a0180620001dd6000396000f3fe608060405234801561001057600080fd5b50600436106100f55760003560e01c806370a0823111610097578063c87b56dd11610066578063c87b56dd14610282578063cd5cfdaf146102b2578063d85d3d27146102e2578063e985e9c5146102fe576100f5565b806370a08231146101fc57806395d89b411461022c578063a22cb4651461024a578063b88d4fde14610266576100f5565b8063095ea7b3116100d3578063095ea7b31461017857806323b872dd1461019457806342842e0e146101b05780636352211e146101cc576100f5565b806301ffc9a7146100fa57806306fdde031461012a578063081812fc14610148575b600080fd5b610114600480360381019061010f9190611b23565b61032e565b6040516101219190611f4f565b60405180910390f35b610132610410565b60405161013f9190611f6a565b60405180910390f35b610162600480360381019061015d9190611bc6565b6104a2565b60405161016f9190611ee8565b60405180910390f35b610192600480360381019061018d9190611ae3565b610527565b005b6101ae60048036038101906101a991906119cd565b61063f565b005b6101ca60048036038101906101c591906119cd565b61069f565b005b6101e660048036038101906101e19190611bc6565b6106bf565b6040516101f39190611ee8565b60405180910390f35b61021660048036038101906102119190611960565b610771565b604051610223919061214c565b60405180910390f35b610234610829565b6040516102419190611f6a565b60405180910390f35b610264600480360381019061025f9190611aa3565b6108bb565b005b610280600480360381019061027b9190611a20565b610a3c565b005b61029c60048036038101906102979190611bc6565b610a9e565b6040516102a99190611f6a565b60405180910390f35b6102cc60048036038101906102c79190611bc6565b610b45565b6040516102d99190611f6a565b60405180910390f35b6102fc60048036038101906102f79190611b7d565b610bf1565b005b6103186004803603810190610313919061198d565b610cbe565b6040516103259190611f4f565b60405180910390f35b60007f80ac58cd000000000000000000000000000000000000000000000000000000007bffffffffffffffffffffffffffffffffffffffffffffffffffffffff1916827bffffffffffffffffffffffffffffffffffffffffffffffffffffffff191614806103f957507f5b5e139f000000000000000000000000000000000000000000000000000000007bffffffffffffffffffffffffffffffffffffffffffffffffffffffff1916827bffffffffffffffffffffffffffffffffffffffffffffffffffffffff1916145b80610409575061040882610d52565b5b9050919050565b60606000805461041f906123a2565b80601f016020809104026020016040519081016040528092919081815260200182805461044b906123a2565b80156104985780601f1061046d57610100808354040283529160200191610498565b820191906000526020600020905b81548152906001019060200180831161047b57829003601f168201915b5050505050905090565b60006104ad82610dbc565b6104ec576040517f08c379a00000000000000000000000000000000000000000000000000000000081526004016104e3906120ac565b60405180910390fd5b6004600083815260200190815260200160002060009054906101000a900473ffffffffffffffffffffffffffffffffffffffff169050919050565b6000610532826106bf565b90508073ffffffffffffffffffffffffffffffffffffffff168373ffffffffffffffffffffffffffffffffffffffff1614156105a3576040517f08c379a000000000000000000000000000000000000000000000000000000000815260040161059a9061210c565b60405180910390fd5b8073ffffffffffffffffffffffffffffffffffffffff166105c2610e28565b73ffffffffffffffffffffffffffffffffffffffff1614806105f157506105f0816105eb610e28565b610cbe565b5b610630576040517f08c379a00000000000000000000000000000000000000000000000000000000081526004016106279061202c565b60405180910390fd5b61063a8383610e30565b505050565b61065061064a610e28565b82610ee9565b61068f576040517f08c379a00000000000000000000000000000000000000000000000000000000081526004016106869061212c565b60405180910390fd5b61069a838383610fc7565b505050565b6106ba83838360405180602001604052806000815250610a3c565b505050565b6000806002600084815260200190815260200160002060009054906101000a900473ffffffffffffffffffffffffffffffffffffffff169050600073ffffffffffffffffffffffffffffffffffffffff168173ffffffffffffffffffffffffffffffffffffffff161415610768576040517f08c379a000000000000000000000000000000000000000000000000000000000815260040161075f9061206c565b60405180910390fd5b80915050919050565b60008073ffffffffffffffffffffffffffffffffffffffff168273ffffffffffffffffffffffffffffffffffffffff1614156107e2576040517f08c379a00000000000000000000000000000000000000000000000000000000081526004016107d99061204c565b60405180910390fd5b600360008373ffffffffffffffffffffffffffffffffffffffff1673ffffffffffffffffffffffffffffffffffffffff168152602001908152602001600020549050919050565b606060018054610838906123a2565b80601f0160208091040260200160405190810160405280929190818152602001828054610864906123a2565b80156108b15780601f10610886576101008083540402835291602001916108b1565b820191906000526020600020905b81548152906001019060200180831161089457829003601f168201915b5050505050905090565b6108c3610e28565b73ffffffffffffffffffffffffffffffffffffffff168273ffffffffffffffffffffffffffffffffffffffff161415610931576040517f08c379a000000000000000000000000000000000000000000000000000000000815260040161092890611fec565b60405180910390fd5b806005600061093e610e28565b73ffffffffffffffffffffffffffffffffffffffff1673ffffffffffffffffffffffffffffffffffffffff16815260200190815260200160002060008473ffffffffffffffffffffffffffffffffffffffff1673ffffffffffffffffffffffffffffffffffffffff16815260200190815260200160002060006101000a81548160ff0219169083151502179055508173ffffffffffffffffffffffffffffffffffffffff166109eb610e28565b73ffffffffffffffffffffffffffffffffffffffff167f17307eab39ab6107e8899845ad3d59bd9653f200f220920489ca2b5937696c3183604051610a309190611f4f565b60405180910390a35050565b610a4d610a47610e28565b83610ee9565b610a8c576040517f08c379a0000000000000000000000000000000000000000000000000000000008152600401610a839061212c565b60405180910390fd5b610a9884848484611223565b50505050565b6060610aa982610dbc565b610ae8576040517f08c379a0000000000000000000000000000000000000000000000000000000008152600401610adf906120ec565b60405180910390fd5b6000610af261127f565b90506000815111610b125760405180602001604052806000815250610b3d565b80610b1c84611296565b604051602001610b2d929190611ec4565b6040516020818303038152906040525b915050919050565b60068181548110610b5557600080fd5b906000526020600020016000915090508054610b70906123a2565b80601f0160208091040260200160405190810160405280929190818152602001828054610b9c906123a2565b8015610be95780601f10610bbe57610100808354040283529160200191610be9565b820191906000526020600020905b815481529060010190602001808311610bcc57829003601f168201915b505050505081565b600781604051610c019190611ead565b908152602001604051809103902060009054906101000a900460ff1615610c2757600080fd5b600681908060018154018082558091505060019003906000526020600020016000909190919091509080519060200190610c62929190611774565b5060006001600680549050610c7791906122b8565b9050610c8333826113f7565b6001600783604051610c959190611ead565b908152602001604051809103902060006101000a81548160ff0219169083151502179055505050565b6000600560008473ffffffffffffffffffffffffffffffffffffffff1673ffffffffffffffffffffffffffffffffffffffff16815260200190815260200160002060008373ffffffffffffffffffffffffffffffffffffffff1673ffffffffffffffffffffffffffffffffffffffff16815260200190815260200160002060009054906101000a900460ff16905092915050565b60007f01ffc9a7000000000000000000000000000000000000000000000000000000007bffffffffffffffffffffffffffffffffffffffffffffffffffffffff1916827bffffffffffffffffffffffffffffffffffffffffffffffffffffffff1916149050919050565b60008073ffffffffffffffffffffffffffffffffffffffff166002600084815260200190815260200160002060009054906101000a900473ffffffffffffffffffffffffffffffffffffffff1673ffffffffffffffffffffffffffffffffffffffff1614159050919050565b600033905090565b816004600083815260200190815260200160002060006101000a81548173ffffffffffffffffffffffffffffffffffffffff021916908373ffffffffffffffffffffffffffffffffffffffff160217905550808273ffffffffffffffffffffffffffffffffffffffff16610ea3836106bf565b73ffffffffffffffffffffffffffffffffffffffff167f8c5be1e5ebec7d5bd14f71427d1e84f3dd0314c0f7b2291e5b200ac8c7c3b92560405160405180910390a45050565b6000610ef482610dbc565b610f33576040517f08c379a0000000000000000000000000000000000000000000000000000000008152600401610f2a9061200c565b60405180910390fd5b6000610f3e836106bf565b90508073ffffffffffffffffffffffffffffffffffffffff168473ffffffffffffffffffffffffffffffffffffffff161480610fad57508373ffffffffffffffffffffffffffffffffffffffff16610f95846104a2565b73ffffffffffffffffffffffffffffffffffffffff16145b80610fbe5750610fbd8185610cbe565b5b91505092915050565b8273ffffffffffffffffffffffffffffffffffffffff16610fe7826106bf565b73ffffffffffffffffffffffffffffffffffffffff161461103d576040517f08c379a0000000000000000000000000000000000000000000000000000000008152600401611034906120cc565b60405180910390fd5b600073ffffffffffffffffffffffffffffffffffffffff168273ffffffffffffffffffffffffffffffffffffffff1614156110ad576040517f08c379a00000000000000000000000000000000000000000000000000000000081526004016110a490611fcc565b60405180910390fd5b6110b88383836115c5565b6110c3600082610e30565b6001600360008573ffffffffffffffffffffffffffffffffffffffff1673ffffffffffffffffffffffffffffffffffffffff168152602001908152602001600020600082825461111391906122b8565b925050819055506001600360008473ffffffffffffffffffffffffffffffffffffffff1673ffffffffffffffffffffffffffffffffffffffff168152602001908152602001600020600082825461116a9190612231565b92505081905550816002600083815260200190815260200160002060006101000a81548173ffffffffffffffffffffffffffffffffffffffff021916908373ffffffffffffffffffffffffffffffffffffffff160217905550808273ffffffffffffffffffffffffffffffffffffffff168473ffffffffffffffffffffffffffffffffffffffff167fddf252ad1be2c89b69c2b068fc378daa952ba7f163c4a11628f55a4df523b3ef60405160405180910390a4505050565b61122e848484610fc7565b61123a848484846115ca565b611279576040517f08c379a000000000000000000000000000000000000000000000000000000000815260040161127090611f8c565b60405180910390fd5b50505050565b606060405180602001604052806000815250905090565b606060008214156112de576040518060400160405280600181526020017f300000000000000000000000000000000000000000000000000000000000000081525090506113f2565b600082905060005b600082146113105780806112f990612405565b915050600a826113099190612287565b91506112e6565b60008167ffffffffffffffff81111561132c5761132b61253b565b5b6040519080825280601f01601f19166020018201604052801561135e5781602001600182028036833780820191505090505b5090505b600085146113eb5760018261137791906122b8565b9150600a85611386919061244e565b60306113929190612231565b60f81b8183815181106113a8576113a761250c565b5b60200101907effffffffffffffffffffffffffffffffffffffffffffffffffffffffffffff1916908160001a905350600a856113e49190612287565b9450611362565b8093505050505b919050565b600073ffffffffffffffffffffffffffffffffffffffff168273ffffffffffffffffffffffffffffffffffffffff161415611467576040517f08c379a000000000000000000000000000000000000000000000000000000000815260040161145e9061208c565b60405180910390fd5b61147081610dbc565b156114b0576040517f08c379a00000000000000000000000000000000000000000000000000000000081526004016114a790611fac565b60405180910390fd5b6114bc600083836115c5565b6001600360008473ffffffffffffffffffffffffffffffffffffffff1673ffffffffffffffffffffffffffffffffffffffff168152602001908152602001600020600082825461150c9190612231565b92505081905550816002600083815260200190815260200160002060006101000a81548173ffffffffffffffffffffffffffffffffffffffff021916908373ffffffffffffffffffffffffffffffffffffffff160217905550808273ffffffffffffffffffffffffffffffffffffffff16600073ffffffffffffffffffffffffffffffffffffffff167fddf252ad1be2c89b69c2b068fc378daa952ba7f163c4a11628f55a4df523b3ef60405160405180910390a45050565b505050565b60006115eb8473ffffffffffffffffffffffffffffffffffffffff16611761565b15611754578373ffffffffffffffffffffffffffffffffffffffff1663150b7a02611614610e28565b8786866040518563ffffffff1660e01b81526004016116369493929190611f03565b602060405180830381600087803b15801561165057600080fd5b505af192505050801561168157506040513d601f19601f8201168201806040525081019061167e9190611b50565b60015b611704573d80600081146116b1576040519150601f19603f3d011682016040523d82523d6000602084013e6116b6565b606091505b506000815114156116fc576040517f08c379a00000000000000000000000000000000000000000000000000000000081526004016116f390611f8c565b60405180910390fd5b805181602001fd5b63150b7a0260e01b7bffffffffffffffffffffffffffffffffffffffffffffffffffffffff1916817bffffffffffffffffffffffffffffffffffffffffffffffffffffffff191614915050611759565b600190505b949350505050565b600080823b905060008111915050919050565b828054611780906123a2565b90600052602060002090601f0160209004810192826117a257600085556117e9565b82601f106117bb57805160ff19168380011785556117e9565b828001600101855582156117e9579182015b828111156117e85782518255916020019190600101906117cd565b5b5090506117f691906117fa565b5090565b5b808211156118135760008160009055506001016117fb565b5090565b600061182a6118258461218c565b612167565b9050828152602081018484840111156118465761184561256f565b5b611851848285612360565b509392505050565b600061186c611867846121bd565b612167565b9050828152602081018484840111156118885761188761256f565b5b611893848285612360565b509392505050565b6000813590506118aa8161296f565b92915050565b6000813590506118bf81612986565b92915050565b6000813590506118d48161299d565b92915050565b6000815190506118e98161299d565b92915050565b600082601f8301126119045761190361256a565b5b8135611914848260208601611817565b91505092915050565b600082601f8301126119325761193161256a565b5b8135611942848260208601611859565b91505092915050565b60008135905061195a816129b4565b92915050565b60006020828403121561197657611975612579565b5b60006119848482850161189b565b91505092915050565b600080604083850312156119a4576119a3612579565b5b60006119b28582860161189b565b92505060206119c38582860161189b565b9150509250929050565b6000806000606084860312156119e6576119e5612579565b5b60006119f48682870161189b565b9350506020611a058682870161189b565b9250506040611a168682870161194b565b9150509250925092565b60008060008060808587031215611a3a57611a39612579565b5b6000611a488782880161189b565b9450506020611a598782880161189b565b9350506040611a6a8782880161194b565b925050606085013567ffffffffffffffff811115611a8b57611a8a612574565b5b611a97878288016118ef565b91505092959194509250565b60008060408385031215611aba57611ab9612579565b5b6000611ac88582860161189b565b9250506020611ad9858286016118b0565b9150509250929050565b60008060408385031215611afa57611af9612579565b5b6000611b088582860161189b565b9250506020611b198582860161194b565b9150509250929050565b600060208284031215611b3957611b38612579565b5b6000611b47848285016118c5565b91505092915050565b600060208284031215611b6657611b65612579565b5b6000611b74848285016118da565b91505092915050565b600060208284031215611b9357611b92612579565b5b600082013567ffffffffffffffff811115611bb157611bb0612574565b5b611bbd8482850161191d565b91505092915050565b600060208284031215611bdc57611bdb612579565b5b6000611bea8482850161194b565b91505092915050565b611bfc816122ec565b82525050565b611c0b816122fe565b82525050565b6000611c1c826121ee565b611c268185612204565b9350611c3681856020860161236f565b611c3f8161257e565b840191505092915050565b6000611c55826121f9565b611c5f8185612215565b9350611c6f81856020860161236f565b611c788161257e565b840191505092915050565b6000611c8e826121f9565b611c988185612226565b9350611ca881856020860161236f565b80840191505092915050565b6000611cc1603283612215565b9150611ccc8261258f565b604082019050919050565b6000611ce4601c83612215565b9150611cef826125de565b602082019050919050565b6000611d07602483612215565b9150611d1282612607565b604082019050919050565b6000611d2a601983612215565b9150611d3582612656565b602082019050919050565b6000611d4d602c83612215565b9150611d588261267f565b604082019050919050565b6000611d70603883612215565b9150611d7b826126ce565b604082019050919050565b6000611d93602a83612215565b9150611d9e8261271d565b604082019050919050565b6000611db6602983612215565b9150611dc18261276c565b604082019050919050565b6000611dd9602083612215565b9150611de4826127bb565b602082019050919050565b6000611dfc602c83612215565b9150611e07826127e4565b604082019050919050565b6000611e1f602983612215565b9150611e2a82612833565b604082019050919050565b6000611e42602f83612215565b9150611e4d82612882565b604082019050919050565b6000611e65602183612215565b9150611e70826128d1565b604082019050919050565b6000611e88603183612215565b9150611e9382612920565b604082019050919050565b611ea781612356565b82525050565b6000611eb98284611c83565b915081905092915050565b6000611ed08285611c83565b9150611edc8284611c83565b91508190509392505050565b6000602082019050611efd6000830184611bf3565b92915050565b6000608082019050611f186000830187611bf3565b611f256020830186611bf3565b611f326040830185611e9e565b8181036060830152611f448184611c11565b905095945050505050565b6000602082019050611f646000830184611c02565b92915050565b60006020820190508181036000830152611f848184611c4a565b905092915050565b60006020820190508181036000830152611fa581611cb4565b9050919050565b60006020820190508181036000830152611fc581611cd7565b9050919050565b60006020820190508181036000830152611fe581611cfa565b9050919050565b6000602082019050818103600083015261200581611d1d565b9050919050565b6000602082019050818103600083015261202581611d40565b9050919050565b6000602082019050818103600083015261204581611d63565b9050919050565b6000602082019050818103600083015261206581611d86565b9050919050565b6000602082019050818103600083015261208581611da9565b9050919050565b600060208201905081810360008301526120a581611dcc565b9050919050565b600060208201905081810360008301526120c581611def565b9050919050565b600060208201905081810360008301526120e581611e12565b9050919050565b6000602082019050818103600083015261210581611e35565b9050919050565b6000602082019050818103600083015261212581611e58565b9050919050565b6000602082019050818103600083015261214581611e7b565b9050919050565b60006020820190506121616000830184611e9e565b92915050565b6000612171612182565b905061217d82826123d4565b919050565b6000604051905090565b600067ffffffffffffffff8211156121a7576121a661253b565b5b6121b08261257e565b9050602081019050919050565b600067ffffffffffffffff8211156121d8576121d761253b565b5b6121e18261257e565b9050602081019050919050565b600081519050919050565b600081519050919050565b600082825260208201905092915050565b600082825260208201905092915050565b600081905092915050565b600061223c82612356565b915061224783612356565b9250827fffffffffffffffffffffffffffffffffffffffffffffffffffffffffffffffff0382111561227c5761227b61247f565b5b828201905092915050565b600061229282612356565b915061229d83612356565b9250826122ad576122ac6124ae565b5b828204905092915050565b60006122c382612356565b91506122ce83612356565b9250828210156122e1576122e061247f565b5b828203905092915050565b60006122f782612336565b9050919050565b60008115159050919050565b60007fffffffff0000000000000000000000000000000000000000000000000000000082169050919050565b600073ffffffffffffffffffffffffffffffffffffffff82169050919050565b6000819050919050565b82818337600083830152505050565b60005b8381101561238d578082015181840152602081019050612372565b8381111561239c576000848401525b50505050565b600060028204905060018216806123ba57607f821691505b602082108114156123ce576123cd6124dd565b5b50919050565b6123dd8261257e565b810181811067ffffffffffffffff821117156123fc576123fb61253b565b5b80604052505050565b600061241082612356565b91507fffffffffffffffffffffffffffffffffffffffffffffffffffffffffffffffff8214156124435761244261247f565b5b600182019050919050565b600061245982612356565b915061246483612356565b925082612474576124736124ae565b5b828206905092915050565b7f4e487b7100000000000000000000000000000000000000000000000000000000600052601160045260246000fd5b7f4e487b7100000000000000000000000000000000000000000000000000000000600052601260045260246000fd5b7f4e487b7100000000000000000000000000000000000000000000000000000000600052602260045260246000fd5b7f4e487b7100000000000000000000000000000000000000000000000000000000600052603260045260246000fd5b7f4e487b7100000000000000000000000000000000000000000000000000000000600052604160045260246000fd5b600080fd5b600080fd5b600080fd5b600080fd5b6000601f19601f8301169050919050565b7f4552433732313a207472616e7366657220746f206e6f6e20455243373231526560008201527f63656976657220696d706c656d656e7465720000000000000000000000000000602082015250565b7f4552433732313a20746f6b656e20616c7265616479206d696e74656400000000600082015250565b7f4552433732313a207472616e7366657220746f20746865207a65726f2061646460008201527f7265737300000000000000000000000000000000000000000000000000000000602082015250565b7f4552433732313a20617070726f766520746f2063616c6c657200000000000000600082015250565b7f4552433732313a206f70657261746f7220717565727920666f72206e6f6e657860008201527f697374656e7420746f6b656e0000000000000000000000000000000000000000602082015250565b7f4552433732313a20617070726f76652063616c6c6572206973206e6f74206f7760008201527f6e6572206e6f7220617070726f76656420666f7220616c6c0000000000000000602082015250565b7f4552433732313a2062616c616e636520717565727920666f7220746865207a6560008201527f726f206164647265737300000000000000000000000000000000000000000000602082015250565b7f4552433732313a206f776e657220717565727920666f72206e6f6e657869737460008201527f656e7420746f6b656e0000000000000000000000000000000000000000000000602082015250565b7f4552433732313a206d696e7420746f20746865207a65726f2061646472657373600082015250565b7f4552433732313a20617070726f76656420717565727920666f72206e6f6e657860008201527f697374656e7420746f6b656e0000000000000000000000000000000000000000602082015250565b7f4552433732313a207472616e73666572206f6620746f6b656e2074686174206960008201527f73206e6f74206f776e0000000000000000000000000000000000000000000000602082015250565b7f4552433732314d657461646174613a2055524920717565727920666f72206e6f60008201527f6e6578697374656e7420746f6b656e0000000000000000000000000000000000602082015250565b7f4552433732313a20617070726f76616c20746f2063757272656e74206f776e6560008201527f7200000000000000000000000000000000000000000000000000000000000000602082015250565b7f4552433732313a207472616e736665722063616c6c6572206973206e6f74206f60008201527f776e6572206e6f7220617070726f766564000000000000000000000000000000602082015250565b612978816122ec565b811461298357600080fd5b50565b61298f816122fe565b811461299a57600080fd5b50565b6129a68161230a565b81146129b157600080fd5b50565b6129bd81612356565b81146129c857600080fd5b5056fea264697066735822122021793e8be532b41a6d89e505dfb6222182c0ddea68def93c0833008445503ca464736f6c63430008060033",
  "immutableReferences": {},
  "source": "// SPDX-License-Identifier: MIT\r\npragma solidity ^0.8.0;\r\n\r\nimport \"./ERC721.sol\";\r\n\r\ncontract NFTMinter is ERC721 {\r\n    string[] public meta;\r\n    mapping(string => bool) _metaExists;\r\n\r\n\r\n    constructor() ERC721(\"Minter\", \"NewNFT\") {}\r\n    \r\n    function mint(string memory _newMeta) public {\r\n        require(!_metaExists[_newMeta]);\r\n        meta.push(_newMeta);\r\n        uint _id = meta.length - 1;\r\n        \r\n        _mint(msg.sender, _id);\r\n        _metaExists[_newMeta] = true;\r\n\r\n    }\r\n\r\n}",
  "sourcePath": "/mnt/e/APP DEVELOPEMENT/APP DEV NEW/BLOCKCHAIN/nft-marketplace/nft-marketplace/src/contracts/NFTMinter.sol",
  "compiler": {
    "name": "solc",
    "version": "0.8.6+commit.11564f7e.Emscripten.clang"
  },
  "schemaVersion": "3.4.1",
  "updatedAt": "2021-06-29T13:18:55.449Z",
  "networkType": "ethereum",
  "devdoc": {
    "kind": "dev",
    "methods": {
      "approve(address,uint256)": {
        "details": "See {IERC721-approve}."
      },
      "balanceOf(address)": {
        "details": "See {IERC721-balanceOf}."
      },
      "getApproved(uint256)": {
        "details": "See {IERC721-getApproved}."
      },
      "isApprovedForAll(address,address)": {
        "details": "See {IERC721-isApprovedForAll}."
      },
      "name()": {
        "details": "See {IERC721Metadata-name}."
      },
      "ownerOf(uint256)": {
        "details": "See {IERC721-ownerOf}."
      },
      "safeTransferFrom(address,address,uint256)": {
        "details": "See {IERC721-safeTransferFrom}."
      },
      "safeTransferFrom(address,address,uint256,bytes)": {
        "details": "See {IERC721-safeTransferFrom}."
      },
      "setApprovalForAll(address,bool)": {
        "details": "See {IERC721-setApprovalForAll}."
      },
      "supportsInterface(bytes4)": {
        "details": "See {IERC165-supportsInterface}."
      },
      "symbol()": {
        "details": "See {IERC721Metadata-symbol}."
      },
      "tokenURI(uint256)": {
        "details": "See {IERC721Metadata-tokenURI}."
      },
      "transferFrom(address,address,uint256)": {
        "details": "See {IERC721-transferFrom}."
      }
    },
    "version": 1
  },
  "userdoc": {
    "kind": "user",
    "methods": {},
    "version": 1
  }
}